101 051000033059999997 1610060000A094101TCB SERVICES           ABC TRUST                      
